:020000040800F2
:1000000018070020CD0100083F2900083D1900080D
:100010003D290008C9020008012C0008000000006A
:10002000000000000000000000000000432900085C
:10003000CB02000800000000412900084529000803
:10004000E7010008E7010008E7010008E7010008F0
:10005000E7010008E7010008E7010008E7010008E0
:10006000E7010008E7010008E7010008E7010008D0
:10007000E7010008E7010008E7010008E7010008C0
:10008000E7010008E7010008E7010008E7010008B0
:10009000E7010008E7010008E7010008E7010008A0
:1000A000E7010008E7010008E7010008E701000890
:1000B000E7010008E7010008E70100084D19000802
:1000C00041190008E7010008E7010008E7010008FE
:1000D000E7010008F52B0008E7010008E701000828
:1000E000E7010008E7010008E7010008E701000850
:1000F000E7010008E7010008E7010008E701000840
:10010000E7010008E7010008E7010008E70100082F
:10011000E7010008E7010008E7010008E70100081F
:10012000E7010008E7010008E7010008E70100080F
:1001300000F002F800F03AF80AA090E8000C8244BF
:100140008344AAF10107DA4501D100F02FF8AFF29C
:10015000090EBAE80F0013F0010F18BFFB1A43F0A5
:10016000010318475C2C00007C2C0000103A24BFCF
:1001700078C878C1FAD8520724BF30C830C144BF0C
:1001800004680C607047000000230024002500264E
:10019000103A28BF78C1FBD8520728BF30C148BFEA
:1001A0000B6070471FB51FBD10B510BD00F05AF8A9
:1001B0001146FFF7F7FF02F035FD00F078F803B4C1
:1001C000FFF7F2FF03BC02F02CFD00000948804756
:1001D00009480047FEE7FEE7FEE7FEE7FEE7FEE729
:1001E000FEE7FEE7FEE7FEE704480549054A064B41
:1001F00070470000A72900083101000818010020FD
:1002000018070020180300201803002070474FF043
:10021000000200B5134694469646203922BFA0E856
:100220000C50A0E80C50B1F12001BFF4F7AF090762
:1002300028BFA0E80C5048BF0CC05DF804EB890053
:1002400028BF40F8042B08BF704748BF20F8022B96
:1002500011F0804F18BF00F8012B704770477047AE
:1002600070477047754600F02BF8AE4605006946AA
:10027000534620F00700854618B020B5FFF7B4FFBD
:10028000BDE820404FF000064FF000074FF0000897
:100290004FF0000B21F00701AC46ACE8C009ACE818
:1002A000C009ACE8C009ACE8C0098D46704710B57C
:1002B0000446AFF300802046BDE81040FFF77FBF43
:1002C00000487047B8000020FEE7704772B6FEE7AE
:1002D00010B590F821100022022905D00421816375
:1002E00080F82020012010BD01680B6823F00E0368
:1002F0000B6001680B6823F001030B6090F840303D
:10030000C46B012101FA03F3636080F8211080F8C7
:100310002020104610BD00002DE9F05F90F821105C
:100320000024022903D004218163012485E00168AF
:100330000A6822F00E020A6001680A6822F00102CF
:100340000A603F4E3E4FB215DFF8F4C0DFF8F09080
:10035000DFF8ECA0DFF8E8B0DFF8E4E00168783F10
:1003600013011502ACF1640CA9F15009AAF13C0A81
:10037000ABF1280BAEF1140E4FF48018B14227D91F
:10038000B9420ED0614512D049451DD0514518D013
:10039000594518D0714501D1424615E0294EB14268
:1003A00001D1012210E0274E1436B14201D11022B2
:1003B0000AE0244E2836B14206D0224A3C3291420D
:1003C00001D11A4600E02A461E49091F0A602BE0A7
:1003D000B94213D0614517D0494522D051451DD0AF
:1003E00059451DD0714501D142461AE0B14202D1B2
:1003F0004FF0807215E0134EB14201D1012210E09E
:10040000104E1436B14201D110220AE00D4E2836AA
:10041000B14206D00B4A3C32914201D11A4600E06B
:100420002A46074980394A60012180F821100021BD
:1004300080F82010416B01B188472046BDE8F09F4D
:10044000800002400804024090F82100704700003C
:1004500070B5044600F00AF90546601C02D0044855
:100460000078044400F002F9401BA042FAD370BDAA
:100470000C0000202DE9F84FDFF8C8910024A9F105
:10048000040B23460F2709F1040AABF1040ED1E057
:100490000125A54006EA0502AA4276D1DFF8A8C1E7
:1004A0004E68A6EB0C0866452BD00DDC032E34D02D
:1004B00005DC36B3012E19D0022E2FD11BE0112EF0
:1004C00016D0122E2AD119E0B8F5881F19D006DCF3
:1004D000B8F5803F15D0B8F5801F1FD111E0B8F5F1
:1004E000001F0ED0B8F5041F18D10AE0CB6815E044
:1004F000CB681B1D12E0CB6808330FE0CB680C33D0
:100500000CE08B682BB1012B4FF0080303D0456141
:1005100004E0042302E0056100E00023FF2A01D883
:10052000064601E000F104064FEA840501D9A5F171
:100530002005D6F8008007FA05FC28EA0C0803FA23
:1005400005F548EA0508C6F800804D68ED0070D54D
:100550003E4DAE6946F00106AE61AD6924F003067A
:1005600005F0010500953A4D06EB050CDCF8085046
:10057000A607360F07FA06F825EA0805DFF8D48043
:10058000404503D14FF0000825E052E0DFF8C88075
:10059000404502D14FF001081DE0DFF8C080404522
:1005A00002D14FF0020816E0DFF8B480404502D1D6
:1005B0004FF003080FE0DFF8AC80404502D14FF068
:1005C000040808E0DFF8A080404502D14FF005089C
:1005D00001E04FF0060808FA06F848EA0508CCF8EA
:1005E00008804D68D9F80060ED024D4601D51643EC
:1005F00000E096432E604D68DAF80060AD02554683
:1006000001D5164300E096432E604D68DBF800608C
:10061000AD035D4601D5164300E096432E604D685C
:10062000DEF80060ED03754601D5164300E0964301
:100630002E60641C0A681646E2407FF429AFBDE8CC
:10064000F88F000008040140000011100010024063
:100650000000014000080140000C01400010014072
:100660000014014000180140001C0140014880684E
:10067000704700000C000020704770472DE9F041E2
:10068000016804464A694E6890F83E000025D74349
:10069000FA050BD4F243D20508D46FF48072012519
:1006A0004A6121680A6842F400420A60B90508D428
:1006B000F143C90505D422686FF4007145F00205C5
:1006C0005161790525D4F143C90522D4638D94F88D
:1006D0003D10226B202808D13BB9212910D02929AF
:1006E0000ED0282901D1212A0AD022686FF4806116
:1006F000516145F00405102806D0402804D008E0D8
:10070000204601F013FE04E02068016841F4007106
:100710000160380508D4F043C00505D421686FF4A2
:10072000006045F008054861002D07D0206C284383
:1007300020642046BDE8F04101F074B9BDE8F081C5
:100740002DE9F047026800215368C66A90F83E40E0
:1007500090F83D50102C12D0402C10D0046C002C7E
:100760007DD05469E443A6077AD4DE43B60577D436
:10077000036C03B19169BDE8F04701F0B3BD97691F
:1007800051694FF42A0CC9435FEAC1784FF02A49F6
:1007900004D066452AD04E4528D010E0DE43B60589
:1007A0000DD4C16A614501D1012103E0C16A494507
:1007B00001D10821C162BDE8F04701F027BC0E0756
:1007C00016D4DE43B60513D4416CC9B21161416B36
:1007D00009B1896A29B9816B002907D0896A002982
:1007E00004D00068416841F400614160BDE8F087D1
:1007F0008E0706D4DE43B60503D4BDE8F04701F00A
:1008000059BBFE43526876074FEA02521DD4002AB4
:10081000ECDB0A0608D4DA43520505D4490705D5AE
:10082000BDE8F04701F0EABA4907DFD4D9438905AA
:10083000DCD4212D05D0402CD8D1BDE8F04701F003
:100840002BBCBDE8F04701F097BA002ACEDB4A0680
:100850000BD4DA43520508D4490708D501E00DE06E
:100860000EE0BDE8F04701F00DBA4907BED4D94308
:100870008905BBD4BDE8F04701F097B9916970E7ED
:10088000E10606D4D943890503D4BDE8F04701F059
:1008900095BD2821212D27D0292D25D0650655D499
:1008A000DD436D0552D4640752D590F83D30448D38
:1008B000002C9BD01269446A2270426A521C426228
:1008C000428D521E4285428D002A8FD12A2B8DD116
:1008D0000268536823F4806353602222026380F825
:1008E0003D1000F015FB81E7250623D4DD436D059F
:1008F00020D4640720D590F83D30448D002CF2D0F0
:10090000446A24781461426A521C4262428D521E2B
:100910004285428D002AE6D1292BE4D10268536832
:1009200023F4806353602122026380F83D1000F0BD
:10093000F0FA5BE76107D6D4D9438905D3D4418D5A
:100940000029D0D0416A097811610AE06107CAD450
:10095000D9438905C7D4418D0029C4D01169426AA1
:100960001170416A491C4162418D491E41853DE734
:100970007047000070B5040025D094F83D000025B4
:1009800020B984F83C50204600F084FA242084F8F2
:100990003D002068016821F00101016020680168C4
:1009A00041F4004101602068016821F400410160C8
:1009B00000F0DEFB4D4A6168914201D84C4900E0ED
:1009C0004C49884201D2012070BD4B492368B0FBDD
:1009D000F1F15E6826F03F060E435E606368934265
:1009E00006D94FF4967359434FF47A73B1FBF3F180
:1009F0002368491C1E6A26F03F063143196261686C
:100A0000914210D84900401EB0FBF1F2521CC2F3D3
:100A10000B02042A01D2042022E0B0FBF1F0401CBA
:100A2000C0F30B001CE0A268F2B301EBC10303EBBF
:100A30000116431EB3FBF6F35B1C43F480431B0516
:100A400049D092B301EBC10202EB0111401EB0FB91
:100A5000F1F0401CC0F30B0040F4804040F4004033
:100A60002168CA694CF6FF739A431043C861D4E900
:100A7000071001432068026822F0C00211430160A0
:100A8000D4E9030101432068826848F2FF339A43A6
:100A900011438160D4E9050108432168CA6822F046
:100AA000FF021043C86001E00EE016E02068016814
:100AB00041F0010101602564202084F83D00256398
:100AC00084F83E50002070BD01EB4106431EB3FB8D
:100AD000F6F35B1CB3E70120C2E701EB4101401EC6
:100AE000B0FBF1F0401CC0F30B00B7E7A08601009B
:100AF00080841E0000093D0040420F00704770478F
:100B000070477047704700002DE9FF4F83B0002504
:100B1000DDE910799A4693460446DDF84880009551
:100B2000FFF7A4FD064694F83D0020287CD1192348
:100B3000012288492046009601F01AFD0028F5D1CF
:100B400094F83C0001286FD0012084F83C00206814
:100B50000168C90703D1016841F001010160206803
:100B6000016821F400610160222084F83D004020EA
:100B700084F83E0025646762A4F82A90608D208581
:100B80007548E062CDE9008653465A4620460499EE
:100B900001F0D6FA00287CD1208DDFF8C091202703
:100BA00068B1012814D00228206801681ED041F4E1
:100BB000806101602068416980690090BCE0206824
:100BC000416981690091016841F400710160B3E0FD
:100BD0002068016821F48061016072B62068416973
:100BE00081690091016841F400710AE041F40061FB
:100BF000016072B62068416981690091016821F441
:100C00008061016062B697E0032865D801280CD0A6
:100C1000022843464FF000024946204600960BD07A
:100C200001F0A6FCA8BB0CE091E03246414620460C
:100C300001F044FD68BB72E001F09AFC48BB72B65B
:100C400033E02068016821F48061016072B6206899
:100C50000069616A0870606A401C6062208D401EF5
:100C60002085608D401E60853D4846F2A8110068D1
:100C7000B0FBF1F0C0EBC00000EB80000090401E24
:100C8000009007D020684069C04340070DD5009808
:100C9000F5E727E044F8305F6773A573206940F0FB
:100CA0002000206162B625731CE02068016841F4D1
:100CB0000071016020680069616A0870606A401C08
:100CC0006062218D491E2185618D491E618562B654
:100CD00021680969017026E032464146204601F04C
:100CE000EDFC18B1012007B0BDE8F08F2068006965
:100CF000616A0870606A401C6062208D401E81B28B
:100D00002185608D401E608520684269D24352076C
:100D100012D4032903D1016821F4806101602068A5
:100D20000069616A0870606A401C6062208D401E24
:100D30002085608D401E6085208D00287FF464AF83
:100D400084F83D7084F83E5084F83C50CBE7022094
:100D5000C9E70000020010000000FFFF04000100CE
:100D6000180000202DE9FF4F83B09A46DDE9119766
:100D700093460446DDF84080FFF778FC054694F87A
:100D80003D0020287FD119230122404920460095AB
:100D900001F0EEFB002876D194F83C00012872D0D7
:100DA000012084F83C0020680168C90703D101686C
:100DB00041F0010101602068016821F400610160D7
:100DC000212084F83D00402084F83E00002626645F
:100DD000C4F82480A4F82A90608D20852C48E06215
:100DE000CDE9007553465A462046049901F026FA8B
:100DF00070B930E02A463946204601F097FC58B1D8
:100E0000206C042804D12068016841F4007101605D
:100E1000012007B0BDE8F08F606A216800780861A2
:100E2000606A401C6062218D491E89B22185628DF5
:100E3000521E628522685369DB435B070BD469B19C
:100E400000781061606A401C6062208D401E208521
:100E5000608D401E6085208D0028CBD12A46394602
:100E6000204601F059FB0028CAD154F83D0B016817
:100E700041F400710160202004F81E09E6776677CE
:100E80000020C6E7FFE70220C3E7000002001000D1
:100E90000000FFFF10B586B0002100910191029182
:100EA00003910068174988422AD1174CA06940F085
:100EB0000800A061A069694600F008000490C02005
:100EC000009012200190032003901048FFF7D2FAFF
:100ED000E06940F40010E061E069002200F40010D5
:100EE000049011461F2000F07BF81F2000F06AF8E4
:100EF00000221146202000F073F8202000F062F854
:100F000006B010BD0054004000100240000C01402B
:100F100070477047024881680278114481607047C9
:100F20000C000020074810B5016841F01001016075
:100F3000032000F075F80F2000F006F800F024F808
:100F4000002010BD0020024070B50D4D04464FF446
:100F50007A712878B1FBF0F00A490968B1FBF0F02A
:100F600000F0DCFA48B9102C07D200222146501EAE
:100F700000F036F800206C6070BD012070BD0000EC
:100F80000C000020180000200C4808B5816941F0D1
:100F900001018161816901F001010091C16941F0A4
:100FA0008051C161C06900F08050009004484168E0
:100FB00021F0E06141F08061416008BD0010024015
:100FC00000000140002809DB00F01F0201219140D0
:100FD0004009800000F1E020C0F8001170470000D7
:100FE000F0B40E4B1B680C46C3F30223C3F1070594
:100FF000042D00D90425191D072901D2002300E082
:10100000DB1E012606FA05F1491E214099409E404B
:10101000761E16403143F0BC01F0F3BD0CED00E04C
:10102000064900F0070208684FF6FF03184040EA3F
:101030000220034A10430860704700000CED00E0F6
:101040000000FA052DE9F0470F46050061D0434E38
:10105000306800F00700B84209D2306820F007007D
:1010600038433060306800F00700B84251D128683A
:101070003B4C810712D5400703D5606840F4E0601F
:1010800060602878000703D5606840F460506060B5
:101090006068A96820F0F000084360602878C00705
:1010A00028D06868012810D02168022810D089074C
:1010B00000292EDA616821F0030101436160FFF726
:1010C000D5FA804641F288390DE021688903EFE7BF
:1010D0008901EDE7FFF7CAFAA0EB0801494502D9FB
:1010E0000320BDE8F0876068696800F00C00B0EB91
:1010F000810FEFD1306800F00700B8420BD930689B
:1011000020F0070038433060306800F00700B84234
:1011100001D00120E5E72878400705D56068E96837
:1011200020F4E060084360602878000706D5606816
:10113000296920F4605040EAC100606000F038F88E
:101140006168084AC1F30311515CC8400649086050
:1011500006480068FFF7F8FE0020C2E700200240C2
:1011600000100240A82D00081800002010000020E8
:101170000448054900684968044AC1F30221515CEA
:10118000C84070471800002000100240B82D000829
:101190000448054900684968044AC1F3C221515C0A
:1011A000C84070471800002000100240B82D000809
:1011B0000E4A51680E4801F00C03042B11D0082B85
:1011C0000FD10C48C1F38343C903C05C0AD55168F1
:1011D000084AC1F34041921E515C054A5043B0FB9E
:1011E000F1F0704704494843704700000010024086
:1011F00000127A00982D000800093D002DE9F84FF3
:10120000040070D02078C04DC00749D06868C0F392
:101210008100012807D06868C0F38100022809D145
:101220006868C00306D52868800339D5606800283F
:10123000E7D035E06068B0F5803F0BD010B1B0F575
:10124000A02F11D0286820F480302860286820F46E
:10125000802002E0286840F480302860606890B107
:10126000FFF704FA06460AE0286840F48020286068
:10127000F0E700BFFFF7FAF9801B642873D82868ED
:101280008003F7D50CE0FFF7F1F9064605E000BF53
:10129000FFF7ECF9801B6428F0D828688003F7D4A6
:1012A00020789A4E80074FF001094FF0000839D599
:1012B000686810F00C0F07D06868C0F3810002283E
:1012C00009D16868C00306D42868800714D520694E
:1012D000012808D110E02069B0B1C6F80090FFF7EE
:1012E000C5F9074605E00AE1FFF7C0F9C01B02286F
:1012F000C4D828688007F7D52868616920F0F8000D
:1013000040EAC10028600DE0C6F80080FFF7AEF9A2
:10131000074604E0FFF7AAF9C01B022823D8286873
:101320008007F7D4207800072CD57948A169D9B176
:10133000C0F80090FFF79AF9074604E0FFF796F926
:10134000C01B02280FD8686A8007F7D571484FF490
:10135000FA510068B0FBF1F0009000BF0098411E08
:101360000091FAD20EE080E0C0F80080FFF77EF92D
:10137000074604E0FFF77AF9C01B022875D8686AAF
:101380008007F7D42078400760D5E8690027C000BF
:1013900008D4E86940F08050E861E869012700F06E
:1013A000805000905C480168C90513D401688346E9
:1013B00041F480710160FFF759F9824606E000BFF1
:1013C000FFF754F9A0EB0A0064284ED8DBF80000C0
:1013D000C005F5D5E06801280AD008B1052813D06A
:1013E000286A20F001002862286A20F0040002E048
:1013F000286A40F001002862E06841F2883B98B119
:10140000FFF734F982460BE0286A40F004002862B6
:10141000EEE700BFFFF72AF9A0EB0A0159455AD8B9
:10142000286A8007F6D50CE0FFF720F9824605E030
:10143000FFF71CF9A0EB0A0159454CD8286A800730
:10144000F6D41FB1E86920F08050E861E06988B304
:101450006968C1F38101022944D00228C6F860807E
:1014600004D0FFF703F9044638E034E0FFF7FEF854
:10147000074604E0FFF7FAF8C01B02282BD82868BB
:101480008001F7D4206AB0F5803F05D16868A16873
:1014900020F4003008436860D4E908010843696813
:1014A00021F4741108436860C6F86090FFF7DEF815
:1014B000044606E025E000BFFFF7D8F8001B02282D
:1014C00009D828688001F7D51BE000BFFFF7CEF8E8
:1014D000001B022802D90320BDE8F88F286880018C
:1014E000F4D40EE00128F7D06868226A00F4803155
:1014F000914204D1616A00F47010884201D0012049
:10150000EAE70020E8E70000001002400000424245
:1015100080044242180000200070004010B5401EB8
:10152000B0F1807F01D3012010BD4FF0E024606155
:101530000F21601701F065FB0020A06107202061EA
:10154000002010BD70477047F8B501680446086870
:10155000CA684B6910F00F0F4FF0000559D003F027
:10156000010602F49077374365D0C10705D0D10555
:1015700003D5616C41F001016164410705D5D907CC
:1015800003D0616C41F002016164810705D5D90780
:1015900003D0616C41F004016164010707D502F0DA
:1015A0002001314303D0616C41F008016164616C3A
:1015B00000293AD0800604D5900602D5204601F0D5
:1015C00022FA20684069616CC0F38010090700D4DA
:1015D00060B3204601F0F0F920684069400621D54B
:1015E0002068143050E8001F21F0400140E800124C
:1015F000002AF5D1E06BA8B16D494163E06BFEF7BD
:101600008BFE002811D0E06B416B01B0BDE8F040CB
:10161000084783060FD593060DD52046BDE8F84050
:1016200001F0F1B92046FFF78EFFF8BD2046FFF725
:101630008AFF6564F8BD266B2023012E7CD1C60687
:101640007AD5D60678D508684868009048694FF082
:101650000206400640D5E16B086840680004000CB3
:10166000E8D0A28D8242E5D9E085886920282DD076
:1016700020680C3050E8001F21F4807140E800120F
:10168000002AF5D12068143050E8001F21F0010134
:1016900040E80012002AF5D12068143050E8001FFD
:1016A00021F0400140E80012002AF5D184F84230D0
:1016B000256320680C3050E8001F21F0100140E83D
:1016C0000012002AF5D1E06BFEF702FE6663A08DE2
:1016D000E18D401A81B22AE0A08DE18D401A81B2DD
:1016E000E08D0028A6D00029A4D022680C3252E850
:1016F000000F20F4907042E80007002FF5D1206819
:10170000143050E8002F22F0010240E80027002F9B
:10171000F5D184F84230256320680C3050E8002F62
:1017200022F0100240E80023002BF5D1666320462A
:10173000FFF708FFF8BDFFE705062BD5150629D5ED
:1017400094F841002128F5D1A068B0F5805F01D15F
:101750002069B0B1206A411C21622168007848608C
:10176000E08C401E0004000CE084E3D12068C168D6
:1017700021F08001C1602068C16841F04001C16072
:10178000D8E7206A0088C0F308004860206A801CFF
:101790002062E5E74006CDD55006CBD5CA68204685
:1017A00022F04002CA6084F8413000F0C6F8C1E778
:1017B000A929000870B5040004D094F84100002560
:1017C00010B106E0012070BD84F84050204600F0C2
:1017D00023F8242084F841002068C16821F40051D6
:1017E000C160204601F070F92068016921F4904140
:1017F00001612068416921F02A0141612068C168C6
:1018000041F40051C1606564202084F8410084F8EF
:1018100042006563002070BD30B585B0002400949F
:101820000194029403940068184988422CD1184806
:10183000816941F480418161816901F480410491B1
:10184000816941F0040181618069124D00F004005A
:1018500004904FF400700090022001900320039048
:1018600069462846FEF706FE2815CDE900046946BC
:1018700028460294FEF7FEFD002211462520FFF7C0
:10188000AFFB2520FFF79EFB05B030BD00380140BF
:10189000001002400008014070472DE9F84304465B
:1018A00090F84100984616460D46202802D00220A6
:1018B000BDE8F88385B17EB100206064212084F802
:1018C0004100FEF7D3FEA6848146E684A068202767
:1018D000B0F5805F02D003E00120E9E7206910B194
:1018E0002E4600250EE000260CE08021204601F067
:1018F00047F9A8B9C6B116F8010B21684860E08C19
:10190000401EE084E08C4B464FF00002CDF8008092
:101910000028EAD14FF04001204601F031F940B1F2
:1019200084F841700320C3E735F8020BC0F30800C8
:10193000E3E784F841700020BAE77047FEE7000053
:101940000148FEF79BBE00001C0000200148FEF786
:10195000F7BE00001C00002038B5406A002190F856
:101960003D202B4B46F2A8141B68B3FBF4F3C3EBEA
:10197000C30303EB830300933BB15B1E0093036837
:101980001B689B0505D5009BF6E7036C43F020031D
:101990000364436B03B19962836B03B1996203687B
:1019A0001C6824F480641C604185436B03B1596357
:1019B000836B03B1596303681C6824F001041C6045
:1019C00090F83D402023602C0BD0282434EA0202FA
:1019D0000FD080F83D3080F83E1000BFFEF7C8FF02
:1019E00038BD80F83D3080F83E100164FEF744FEBB
:1019F00038BD0268136843F001031360026813687E
:101A000043F480631360016380F83D40E6E7000023
:101A10001800002000684169C943090601D400216B
:101A20000161704770B5044690F83D0094F83E108F
:101A3000102901D0402906D1222804D121680A6842
:101A400022F400620A60282131EA00024FF000050A
:101A50004FF0200626D021684968090505D4602882
:101A600003D084F83D6084F83E50256320684168C7
:101A7000090537D5416821F400614160606B90F839
:101A800021203C49012A11D04163606BFEF744FCE0
:101A900038B32068016821F00101016084F83D60DD
:101AA000606B1CE0256384F83D10DFE7A06B4163A9
:101AB000A06BFEF731FCA0B120684169C94349061B
:101AC00005D40069616A0870606A401C6062206821
:101AD000016821F00101016084F83D60A06B416B59
:101AE000884710E094F83D10602910D04169C9433F
:101AF000490605D40069616A0870606A401C60622A
:101B00002046FEF735FF206CC1071CD115E084F894
:101B10003D6025644169C943490605D40069616A8D
:101B20000870606A401C60622068016821F0010151
:101B300001602046FEF7A0FDE5E7810703D44107D9
:101B400001D4000704D52068416821F4E0614160B8
:101B500094F83D00216C49070BD5282809D1064887
:101B6000E062256384F83D6084F83E502046FEF72D
:101B7000C5FF70BD591900080000FFFF01684A69E0
:101B8000D24352050FD46FF480624A61002140F8BD
:101B9000301F202242738173026942F00402026105
:101BA0000173012070470020704710B5C26A438D51
:101BB0000168042B06D0438D032B08D0438D022BE4
:101BC0001DD012E04A6822F480624A600CE04B6843
:101BD00023F480634B60042A06D0022A04D00168F3
:101BE0000A6822F480620A6001680969426A117019
:101BF000416A491C4162418D491E418510BD012A3F
:101C000034D0102A32D0042A34D0022A32D00B68C1
:101C100043F400730B6001680969436A1970416AF3
:101C2000491C4162438D5B1E438503681B690B7031
:101C3000416A491C4162418D491E418501684B68DA
:101C400023F440734B60202180F83D1090F83E3023
:101C50000021402B80F83E1010D0082A02D0202A04
:101C600000D012210163FEF74AFF10BD0B6823F478
:101C70008063CFE70B6843F48063CBE70163FEF733
:101C800040FF10BD38B590F83D10222910D1C36A2D
:101C9000418D03290DD901680969426A1170416AB1
:101CA000491C4162418D491E4185418D032906D061
:101CB00038BDC26A022A02D0012906D029B10068C3
:101CC000416821F48061416038BD2A4A46F2A81477
:101CD00000211268B2FBF4F202EB82020092026869
:101CE0002024009D6D1E009526D01568AD05F8D402
:101CF000156825F4806515600268556825F4E0656F
:101D0000556002681269456A2A70426A521C426232
:101D1000428D521E428580F83D4090F83E2080F86A
:101D20003E10402A21D0082B02D0202B00D01221B7
:101D30000163FEF7E4FE38BD036C43F02003036447
:101D4000536823F4E063536002681269436A1A70AF
:101D5000426A521C4262428D521E428580F83D40CA
:101D600080F83E10FEF704FE38BD0163FEF7C9FEA1
:101D700038BD00001800002010B5C26A90F83D1070
:101D800021290BD1418D51B1416A02680978116155
:101D9000416A491C4162418D491E418510BD202385
:101DA0000021082A13D0202A11D012F5803F0ED02E
:101DB0000268546824F4E06454601122026380F8DD
:101DC0003E1080F83D3000BFFEF79AFE10BD02685D
:101DD000546824F4E06454600268146844F40074A5
:101DE0001460016380F83D3090F83E2080F83E108A
:101DF000402AE9D1FEF786FE10BD000010B590F82C
:101E00003D1090F83E30C26A048DB4B1212903D050
:101E1000402B11D122290FD1418DE1B390F83E1012
:101E2000402942D0416A026809781161416A491C1F
:101E30004162418D491E418510BD2129E8D12023F1
:101E40000021082A13D0202A11D012F5803F0ED08D
:101E50000268546824F4E06454601122026380F83C
:101E60003E1080F83D3000BFFEF74AFE10BD02680C
:101E7000546824F4E06454600268146844F4007404
:101E80001460016380F83D3090F83E2080F83E10E9
:101E9000402AE9D100E002E0FEF734FE10BD006800
:101EA000416821F48061416010BDBDE8104000F040
:101EB000F3B8000078B590F83E50C26A046B90F811
:101EC0003D6000230168222E73D1066D0EB9402DAE
:101ED0006FD0056D1DB90569B5F5404F1BD0458D17
:101EE00095B3468D484D012E20D0448D022C4DD007
:101EF0000C6844F480640C6001684C68240579D552
:101F0000AA4273D0012A71D0082A6FD0102A6DD04E
:101F1000202A6BD06EE04A698A6900920A6842F40E
:101F200080720A60016D491C016578BDAA4214D116
:101F30000A6822F480620A6001684A68120504D5C2
:101F40000A6822F4806217E0FFE74A698A69009212
:101F50000A6842F400720A6050E0082A10D0202A71
:101F60000ED0122C0AD0042A03D0022A01D0102A43
:101F7000E6D10A6842F480620A603BE0012ADFD0C1
:101F80000A6822F480620A600168DEE7042A11D040
:101F9000022A0FD0102A0DD00C6844F400640C60A3
:101FA00001684C698C6900940C6824F480640C60AE
:101FB00008E025E00C6844F480640C6001684C691A
:101FC0008969009101684C68240517D5AA4207D099
:101FD000012A05D0082A03D0102A01D0202A0DD1C9
:101FE0004A6842F480524A6008E0FFE74A6842F4D7
:101FF00080524A6001684A6989690091036578BD29
:1020000048698869009078BD0000FFFF90F83E1095
:10201000402910D00169B1F5804F19D0016DA9B3E5
:10202000016D012910D1416C5FF0F10201F44071A2
:1020300042EAD11106E0016D0029416C05D0C9B218
:1020400041F0010100680161704701F0FE01F9E70C
:1020500090F83D102129416C09D0C9B241F001012D
:1020600002681161416B29B1896A49B902E001F046
:10207000FE01F5E7816B0029E6D0896A0029E3D0EB
:102080000068416841F4006141607047FFE7416CBE
:10209000F02201F44071CBE710B590F83D10026DCD
:1020A0004AB1026D012A14D0026D022A16D0BDE891
:1020B0001040FFF7AFBCC16C0129816C02D0C1F3A5
:1020C000072108E00268C9B21161016D891C016530
:1020D00010BD816CC9B20268116123E022291CD0B5
:1020E000428D0AB1212920D0428D002AF0D1212928
:1020F000EED101684A6822F4E0624A6001680A6829
:1021000042F400720A6000210163202280F83D2021
:1021100080F83E10FEF7F6FC10BD01680A6842F434
:1021200080720A60016D491CD1E7416A0268097832
:102130001161416A491C4162418D491E418510BDB2
:102140002DE9F84F0446006889460B9D01689846C2
:10215000174641F4806101602068016841F4807194
:10216000016000954FF0011B0022594620460A9B52
:1021700000F0FEF94FF4007A40B120680068C00515
:1021800001D5C4F840A00320BDE8F88F216809F00C
:10219000FE0008612B46284920460A9A00F030FAD2
:1021A000F0BB20684169806900902A4620460A9960
:1021B00000F0BCFA40B1206C04283AD120680168D4
:1021C00041F40071016034E0FEB2B8F1010F09D0B2
:1021D0002168380A08612A4620460A9900F0A6FAC2
:1021E0000028E8D1206806612A4620460A9900F0B6
:1021F0009DFA0028DFD12068016841F480710160F8
:1022000000950022594620460A9B00F0B1F90028AB
:10221000B3D1216809F0FF0040F00100086100E03F
:1022200007E02B46044920460A9A00F0E9F9002805
:10223000AAD00120A8E70000020001002DE9F84320
:10224000044600680D46DDE9089701689846164681
:1022500041F4807101604B4600224FF0011120468D
:10226000009700F085F948B120680068C00502D5E4
:102270004FF4007020640320BDE8F883216805F066
:10228000FE0008613B464A461549204600F0B8F971
:1022900088B920684169806900903A4649462046DD
:1022A00000F044FA48B1206C042804D12068016889
:1022B00041F4007101600120DEE7F5B2B8F1010FD1
:1022C00009D02168300A08613A464946204600F0A4
:1022D0002DFA0028E7D1206805610020CCE7000036
:1022E0000200010038B50C4690F83D200021282559
:1022F000954302680B4605D051699169009180F8B9
:102300003C3038BD556825F480655560E24354077C
:1023100000D50121120601D5828900E0028B80F8E8
:102320003C3092B2FEF7A9F938BD00002DE9F0412A
:1023300090F83D300446C26A002120261E4F0068F6
:102340006FF48065082A01D0202A01D1282B04D0FF
:10235000212B17D04561BDE8F081E762426822F485
:10236000E0624260206845612068026822F4806271
:102370000260216384F83D6084F83E102046FEF739
:10238000BDFBE8E7E7622122226384F83D6084F820
:102390003E10416821F4E061416020684561206899
:1023A000016821F4806101602046FFF733FB20467D
:1023B000FEF7AFFDCFE700000000FFFFF8B590F893
:1023C0003D6004460068416821F4E0614160206896
:1023D000002541690091016841F001010160206818
:1023E000016821F48061016020684168090520D5F9
:1023F000474F222E48D02A2E46D0616B0968496883
:102400006185618D19B1216C41F00401216441683D
:1024100021F400614160606BFEF716F8012808D0D6
:10242000606B4763606BFDF777FF10B1606B416BCA
:102430008847608D08B320684169C943490708D4BB
:102440000069616A0870606A401C6062608D401EAD
:10245000608520684169C943490608D40069616AFA
:102460000870606A401C6062608D401E6085608DEF
:1024700018B1206C40F004002064206C00B32046AA
:10248000BDE8F840FFF7CEBAA16B096849686185DD
:10249000618D19B1216C41F004012164416821F47E
:1024A00000614160A06BFDF7CFFF0128C1D0A06B98
:1024B0004763A06BFDF730FF0028BAD0A06BB6E7EA
:1024C0002A2E06D12563282084F83D002046FEF7F9
:1024D0001FFD94F83D10202028290DD0216B2229C2
:1024E00001D0222E07D1256384F83D0084F83E50A8
:1024F0002046FEF70DFDF8BD0649E162256384F82C
:102500003D0084F83E502046FEF7F8FAF8BD000082
:10251000591900080000FFFF70B516460D46044625
:102520001EE02046FFF72AFB08B1012070BD681CA1
:1025300016D0FEF79BF8801BA84200D885B920680A
:102540004069C04340070BD5002044F8300F2021DC
:102550006173A073216941F0200121612073E4E7D8
:1025600020684069C0434007DBD4002070BD0000F4
:102570002DE9F047984617460D460446C1F3074635
:10258000DDF820902AE000BFB8F1FF3F26D0FEF72B
:102590006DF8A0EB0901414502D8B8F1000F1DD13B
:1025A0002068012E16D0806925EA00000004000C86
:1025B00012D00020B84211D1002044F8300F202161
:1025C0006173A073216941F0200121612073012012
:1025D000BDE8F0874069E7E70120EBE72068012EBE
:1025E0000AD0806925EA00000004000C06D0002013
:1025F000B842C9D00020EBE74069F3E70120F7E7D4
:102600002DE9F047984616460D4604464FF000095E
:102610004FF0200AC1F3074723E020684069C04318
:10262000400515D42068016841F4007101602168FB
:102630006FF480604861C4F8309084F83DA084F85D
:102640003E90216C41F00401216484F83C9021E02B
:10265000701C06D0FEF70AF8A0EB0800B04203D8C1
:1026600016B1012F1FD021E02068012F15D08069FD
:1026700025EA00000004000C18D000BF44F8309F89
:1026800084F80DA084F80E90216941F020012161A9
:1026900084F80C900120BDE8F087406925EA00002D
:1026A0000004000CEAD12068406901E020688069DC
:1026B00025EA00000004000CAFD1ECE72DE9F04161
:1026C000002590460E460446202728E04069C04376
:1026D000C0060CD454F8301B6FF01000486144F869
:1026E00010596777A577206A2062257714E0FDF7F7
:1026F000BDFFA0EB0800B04200D886B92068406951
:10270000C04340060BD544F8305F6773A57320695A
:1027100040F02000206125730120BDE8F081206891
:102720004169C9434906D1D40020F6E770B5164681
:102730000D4604461EE02046FFF720FA08B10120AE
:1027400070BD681C16D0FDF791FF801BA84200D811
:1027500085B920684069C04300060BD5002044F8C5
:10276000300F20216173A073216941F020012161A4
:102770002073E4E720684069C0430006DBD40020F2
:1027800070BD2DE9F0470746DDE9089A1D469046E1
:102790000E463B2000F05AF804463C2000F056F864
:1027A00040EA042038803D2000F050F804463E20E6
:1027B00000F04CF840EA042030803F2000F046F85A
:1027C0000446402000F042F840EA0420A8F8000047
:1027D000432000F03BF80446442000F037F840EA7C
:1027E00004202880452000F031F80446462000F0FF
:1027F0002DF840EA0420A9F80000472000F026F850
:102800000446482000F022F840EA0420AAF800001C
:10281000BDE8F08710B501216B2000F02BF80021F6
:102820006C2000F027F80921192000F023F8062178
:102830001A2000F01FF818211B2000F01BF81821A7
:10284000BDE810401C2000F015B800001FB54FF681
:10285000FF73012203A98DE80E0013460246D02122
:102860000348FEF751F99DF80C0004B010BD0000BC
:102870001C00002003B583B04FF6FF73012204A9AA
:102880008DE80E0013460246D0210248FEF76AFA90
:1028900005B000BD1C000020094808B5816941F061
:1028A00004018161816901F004010091816941F0B5
:1028B00008018161806900F00800009008BD0000F7
:1028C000001002400D4810B50B4901600C494160F1
:1028D00000214FF480428160C0E9031241618161AF
:1028E000C1610162FEF746F8002803D0BDE8104040
:1028F000FDF7ECBC10BD0000005400401C0000209F
:10290000A08601000C4810B50A4901604FF4E1317E
:102910004160002181600C22C160C0E90412816124
:10292000C161FEF747FF002803D0BDE81040FDF766
:10293000CDBC10BD0038014070000020FEE7FEE76E
:1029400070477047FEF7E6BA30B58FB02821684669
:10295000FDF75DFC14210AA8FDF759FC01210804CC
:10296000CDE900100024029402250491CDE907501E
:102970004FF4E01009906846FEF740FC08B172B6CB
:10298000FEE70F20CDE90A054FF48060CDE90C4049
:1029900002210AA80E94FEF755FB002801D072B65A
:1029A000FEE70FB030BD704710B5406A0021C18509
:1029B000C184FEF7C8FD10BD01680C3151E8002F3D
:1029C00022F4907241E80023002BF5D10168143104
:1029D00051E8002F22F0010241E80023002BF5D13D
:1029E000016B012909D101680C3151E8002F22F057
:1029F000100241E80023002BF5D1202180F842107D
:102A000000210163704708B590F84210222901D0D7
:102A1000022008BD82684FF480539A4201D10169B7
:102A200021B1816A9A421BD04AB10AE00268816AE8
:102A30005268C2F308020A80816A891C08E00269B0
:102A400072B10268526802F07F020A70816A491C02
:102A50008162C18D491E0904090CC18503D01BE0A8
:102A600002685268F1E70168CA6822F02002CA6071
:102A70000168CA6822F48072CA6001684A6922F05B
:102A800001024A61202180F8421000214163026B5B
:102A9000012A03D0FEF700FF002008BD0163016892
:102AA0000C3151E8002F22F0100241E80023002BE6
:102AB000F5D101680A68D20602D50A684968009112
:102AC000818DFEF73FFDE7E770B5044600680169B8
:102AD000E26821F44051114301612169A068084373
:102AE000616908432168CA6841F20C639A43024352
:102AF000CA6020684169A26921F4407111434161B3
:102B00001E492068884202D1FEF742FB01E0FEF731
:102B10002FFB00EBC00101EB001260686421800014
:102B2000B2FBF0F3B3FBF1F36FF018067343B2FBA3
:102B3000F0F5B2FBF0F605EB8305322303EB051548
:102B4000B5FBF1F5B6FBF1F605F0F00505EB061562
:102B5000B2FBF0F6B2FBF0F0B0FBF1F06FF0180250
:102B6000504306EB800003EB0010B0FBF1F021684E
:102B700000F00F002844886070BD0000003801405C
:102B80002DE9F843984617460D460446089E24E072
:102B9000701C22D0FDF76AFDA0EB0800B0421AD8E5
:102BA000CEB12068C168490717D5802D15D0402DBA
:102BB00013D00168C94309070FD401680025406894
:102BC00000902046FFF7F8FE0820606484F840502B
:102BD0000120BDE8F8830320FBE72068006835EAA0
:102BE000000004D00020B842D2D00020F1E701203C
:102BF000F9E700000148FEF7A7BC000070000020C4
:102C0000FEE70907090E002804DB00F1E02080F848
:102C10000014704700F00F0000F1E02080F8141D50
:102C20007047704786B0FEF77DF9FFF78DFEFFF71E
:102C300033FEFFF747FEFFF765FEFFF7EBFD154D8F
:102C40004FF46167AE1E42F2283844F25069A5F194
:102C50000A04104BCDE900651B1F9A1E911E881EA9
:102C6000FFF78FFDB4F90A20CDE90129CDE90387EB
:102C7000B4F908000090B4F90630B4F90420B4F9AE
:102C80000210B4F9000000F03DF86420FDF7E0FB0D
:102C9000DFE700000A00002070B588B01C2A2CD89D
:102CA0000DEB02030025DD7088258DF800508DF8AE
:102CB00001006C468DF80220002004E00D5C26180F
:102CC000401CF570C0B29042F8D30020D11C05E042
:102CD000265CDD78401C3544DD70C0B28842F7D3F5
:102CE0000025161D07E06119642301220448FEF740
:102CF000D4FD6D1CEDB2B542F5D308B070BD000037
:102D0000700000202DE9F04788B010ACDDE91365B4
:102D100094E880060024A4464FEA0D0808F804C091
:102D2000641CE4B21C2CF9D3040A8DF800408DF821
:102D30000100080A8DF80200100A8DF804008DF8D1
:102D40000520180A8DF80600380A8DF808008DF85D
:102D500009704FEA19208DF80A004FEA1A208DF801
:102D600012008DF80310300A8DF814008DF81560EC
:102D7000280A8DF816008DF807308DF80B908DF825
:102D800013A08DF817501C224146AF20FFF784FF97
:102D900008B0BDE8F0870102020304050607080930
:102DA0000A0B0C0D0E0F10100000000000000000B8
:102DB00001020304060708090000000001020304E1
:102DC000E02D0008000000201C0000006C0100083D
:102DD000FC2D00081C000020FC06000088010008F3
:102DE00000000000000000000000000001000000E2
:0C2DF000100000000000000000127A003B
:0400000508000131BD
:00000001FF
